:02000002B0004C
:1040000000400B006C5B0B00000006000C0005027A
:0840100004016810000000002B
:0440180004580B003D
:10401C0009480A49884208B505D0094A824202D0AB
:10402C00121A01F010FB0748074A0021121A01F07E
:10403C0018FB014808BD00BF28E60320D85A0B0026
:10404C0094E6032094E60320EDE7032070B5074EB9
:10405C00074C01F0E7F9A41BA4080025AC4200D1E1
:10406C0070BD56F8043B98470135F7E7885A0B00AA
:10407C00AC5A0B0000F034B808B500F091F8BDE86C
:10408C00084001F087B900F063BA00F061BA00F0A3
:10409C0067BA0FB44FF0FF3004B070470078B0FA35
:1040AC0080F04009704701230370704770470EB4CD
:1040BC0000B58CB00DAA4FF0200C52F8041B0392E3
:1040CC00CDE900120023016804AA1E20CDE904C327
:1040DC0000F08AF90CB05DF804EB03B070470000F7
:1040EC0007B50022CDE900220448054900680123E8
:1040FC0000F0BEF903B05DF804FB00BF94E60320AA
:10410C00B9400B0010B58CB01F4904A800F0A3FFF8
:10411C001E4908A800F09FFF04A908A800F0E0FFC2
:10412C0001681B48FFF7C3FF08A800F049FF1949B5
:10413C0008A800F0B3FF184908A800F0D1FF174BEE
:10414C0001681B788DF80030049A3C2302A800F01B
:10415C00B7FB039C7CB16368013B63605BB923686C
:10416C0020469B689847A368013BA3601BB9236852
:10417C002046DB68984708A800F022FF04A800F04E
:10418C001FFF0CB010BD00BF18580B0030580B00AF
:10419C00C4E6032094E60320A8E60320A4E603204B
:1041AC0010B5132001F0AEF9044601460548FFF79F
:1041BC0070FFB4F57A7F03DDBDE81040FFF7A2BFB6
:1041CC0010BD00BF41580B0008B5064B0649074807
:1041DC0000221A7000F03FFFBDE808400449054872
:1041EC0000F039BFA4E6032052580B0094E60320DC
:1041FC0072580B00A8E6032008B5024B1B685B6CD9
:10420C00019308BD4802030008B5024B1B685B68AC
:10421C00019308BD1802030008B5024B1B685B69CB
:10422C00019308BD1802030008B5024B1B685B68BC
:10423C00019308BD2C02030008B5024B1B681B6BD5
:10424C00019308BD2C02030008B5024B1B681B6AC6
:10425C00019308BD2802030008B5024B1B685B6A7A
:10426C00019308BD2802030008B5024B1B689B6A2A
:10427C00019308BD2802030008B5024B1B68DB6ADA
:10428C00019308BD2802030008B5024B1B681B6B89
:10429C00019308BD2802030008B5024B1B685B6B39
:1042AC00019308BD2802030008B5024B1B681B6C68
:1042BC00019308BD2802030008B5024B1B685B691B
:1042CC00019308BD6402030008B5024B1B689B6890
:1042DC00019308BD6802030008B5024B1B68DB683C
:1042EC00019308BD6802030008B5024B1B68DB692B
:1042FC00019308BD3002030008B5024B1B681B6A12
:10430C00019308BD3002030008B5024B1B68DB6843
:10431C00019308BD3C02030008B5024B1B681B69E6
:10432C00019308BD3C02030008B5024B1B685B6996
:10433C00019308BD3C02030008B5024B1B689B6946
:10434C00019308BD3C02030008B5024B1B68DB69F6
:10435C00019308BD3C02030008B5024B1B681B6AA5
:10436C00019308BD3C02030008B5024B1B689B6A15
:10437C00019308BD3C02030008B5024B1B681B6C83
:10438C00019308BD3C02030008B5024B1B681B6877
:10439C00019308BD4C02030008B5024B1B681B6956
:1043AC00019308BD4C02030008B5024B1B685B6906
:1043BC00019308BD4C02030008B5024B1B689B69B6
:1043CC00019308BD4C02030008B5024B1B68DB6966
:1043DC00019308BD4C02030008B5024B1B681B6A15
:1043EC00019308BD4C02030008B5024B1B685B6DC2
:1043FC00019308BD6002030008B5024B1B685B68A3
:10440C00019308BD2002030008B5024B1B68DB6C4E
:10441C00019308BD2002030008B5024B1B685B6DBD
:10442C00019308BD2002030008B5034B1B68D3F8A9
:10443C008830019308BD00002002030008B5034B2F
:10444C001B68D3F89430019308BD000020020300D0
:10445C0008B5024B1B685B69019308BD440203005D
:10446C0008B5024B1B681B6A019308BD440203008C
:10447C0008B5024B1B685B6A019308BD440203003C
:10448C0008B5024B1B68DB6B019308BD44020300AB
:10449C0008B5024B1B685B68019308BD4002030022
:1044AC0008B5024B1B689B68019308BD40020300D2
:1044BC0008B5024B1B68DB68019308BD4002030082
:1044CC0008B5024B1B681B69019308BD4002030031
:1044DC0008B5024B1B685B69019308BD40020300E1
:1044EC0008B5024B1B689B69019308BD4002030091
:1044FC0008B5024B1B68DB69019308BD4002030041
:10450C0008B5024B1B681B6A019308BD40020300EF
:10451C0008B5024B1B681B6B019308BD40020300DE
:10452C0008B5024B1B685B6B019308BD400203008E
:10453C0008B5024B1B681B6C019308BD40020300BD
:10454C0008B5024B1B685B6C019308BD400203006D
:10455C0008B5024B1B681B68019308BD1C020300C5
:10456C0008B5024B1B685B68019308BD1C02030075
:10457C0008B5024B1B689B68019308BD1C02030025
:10458C0008B5024B1B68DB6A019308BD1C020300D3
:10459C0008B5024B1B681B6B019308BD1C02030082
:1045AC0008B5024B1B681B6C019308BD1C02030071
:1045BC0008B5024B1B685B6C019308BD1C02030021
:1045CC0010B5836804460BB901F034F8C3689847FA
:1045DC00A3681BB103222146204698472046102190
:1045EC00BDE81040FFF753BD10B58368044613B106
:1045FC00032201469847204610BD10B54368013B85
:10460C000446436063B903689B689847A368013B01
:10461C00A3602BB923682046DB68BDE8104018471F
:10462C0010BD10B50446006808B1FFF7E6FF204640
:10463C0010BD13B50B460246D0E900016C4684E868
:10464C00030093E8030082E8030094E8030083E886
:10465C00030002B010BD0000024800230360FFF706
:10466C00CBBD00BFB8E6032070470020704710B5E3
:10467C0010210446FFF70BFD204610BD08B5FFF7CF
:10468C00F6FF08BD30B500224FF69C7402608480A2
:10469C008D888C800C68858004600A6030BD10B5F4
:1046AC0004460068FFF75CFF204610BD38B5C468AF
:1046BC00F4B12378022B03D104F10C00FFF7EFFFC8
:1046CC00656835B12846FFF78FFF10212846FFF7A4
:1046DC00DEFCA56835B12846FFF786FF1021284679
:1046EC00FFF7D5FC20461421BDE83840FFF7CFBCBE
:1046FC0038BD0B6803604B68436013B15A680132D4
:10470C005A60704737B5044668460D46FFF7F1FF0F
:10471C00009B019A23606260002301A8019300931F
:10472C00FFF77FFF35B1281DFFF77BFF08212846D7
:10473C00FFF7ADFC204603B030BD826810B50AB956
:10474C0000F078FFBDE81040C368184708B5006852
:10475C0000F11001FFF7F1FF08BD826810B50AB92E
:10476C0000F068FFBDE81040C368184708B5006842
:10477C0000F11001FFF7F1FF08BD000038B5002370
:10478C000446036010200D46FFF77DFC28B1012381
:10479C00C0E90133024B0360C5602060204638BD80
:1047AC0090580B0038B5002383608B6804460D4687
:1047BC002BB102229847EB68E360AB68A3602046FC
:1047CC0038BD0000F0B589B004686846FFF75AFFA1
:1047DC004FF00203D4E84F2F002A03D1C4E8413F25
:1047EC000029F7D125D104F10C0569462846FFF7BD
:1047FC0049FFBFF35B8F01236370002004F10803B2
:10480C00BFF35B8F53E8006F43E80002002AF9D135
:10481C00BFF35B8F6EB1FFF7F7FD78B129463046D9
:10482C00FFF78BFF3046FFF7DFFE10213046FFF716
:10483C002EFC6846FFF733FF09B0F0BD314602A8E5
:10484C00FFF7B0FFE068B4F9105008B100F048FF72
:10485C0006901020ADF81C50FFF715FC0546E8B18A
:10486C00002787601820FFF70EFC044688B101462C
:10487C00876002A8FFF7DDFE049BA268A360059B7E
:10488C00049206A9E268E36004F110000592FFF7B8
:10489C00F9FE084BEB60084B2C60AB6006A8FFF7E9
:1048AC00FEFE02A8FFF7A0FE002229460348FFF7F0
:1048BC00B3FDB7E759470B00DD490B00CD450B00A5
:1048CC002DE9F04F8BB005469DF850A00F46904651
:1048DC009946FFF7BDFD07AE834638BB4FF62E73E6
:1048EC00059005A93046ADF81830FFF7CBFE142023
:1048FC00FFF7C9FB044648B1022303700123C0E94A
:10490C0001BB437031460C30FFF7BCFE28462146F4
:10491C0040F8044BFFF732FF3046FFF7C0FE05A806
:10492C00FFF7BDFE28460BB0BDE8F08F0C2300242A
:10493C001420CDE908440793FFF7A5FB014618B1F5
:10494C00C0E901440470447004A80391FFF716FFFA
:10495C001E4B08930820FFF796FB044610B103A9E1
:10496C00FFF7C7FE00965FFA8AF34A46414638467F
:10497C000994FFF775FDB8B9039B5B7803F0FF0250
:10498C0093B94FF69C7305A903A80592ADF818309E
:10499C00FFF718FF05A8FFF782FE05A80999FFF796
:1049AC00B1FE06A8FFF73DFE03A905A8FFF7A1FE7F
:1049BC00059B069A2B606A60002306A80693059354
:1049CC00FFF72FFE04A8FFF72CFEABE7594A0B00AC
:1049DC00012AF8B5054603D10B6803600020F8BD29
:1049EC00022A10D0032AF9D10468002CF6D004F165
:1049FC001000FFF754FE2046FFF7F6FD1821204665
:104A0C00FFF745FBEAE718200E68FFF73CFB04466E
:104A1C0050B13146FFF7C6FE3069B6F9147008B1D3
:104A2C0000F05EFE2061A7822C60D7E738B500232A
:104A3C0083608B6804460D462BB102229847EB68C5
:104A4C00E360AB68A360204638BD0000F0B589B0C8
:104A5C0004460D4601A81146FFF754FEA4B124B23A
:104A6C001DB1284600F03CFE054601A803A903959C
:104A7C00ADF81040FFF7A6FE03A8FFF710FE02A842
:104A8C00FFF7CFFD09B0F0BD019D0123D5E84F2FF5
:104A9C00002A03D1C5E8413F0029F7D1EFD12B7390
:104AAC00BFF35B8F6B702B1DBFF35B8F53E8006FF5
:104ABC0043E80042002AF9D1BFF35B8F002EDED011
:104ACC002046FFF7A1FC074660B105F10C0130460A
:104ADC00FFF743FE3046FFF787FD10213046FFF706
:104AEC00D6FACCE7314603A8FFF7A0FF2B7B8DF855
:104AFC001C301020FFF7C7FA0546D0B18760142090
:104B0C00FFF7C1FA044678B18760014603A8FFF7A6
:104B1C0090FD059BA268A360069B0592E268E3608A
:104B2C009DF81C3006922374064BEB60064B2C60F0
:104B3C00AB6003A8FFF758FD002229460348FFF796
:104B4C006BFCC7E779470B005D4B0B00CD450B00A9
:104B5C00012A70B5044603D10B680360002070BDB8
:104B6C00022A0CD0032AF9D10468002CF6D0204676
:104B7C00FFF73AFD14212046FFF789FAEEE71420DF
:104B8C000E68FFF780FA054620B13146FFF74EFF5D
:104B9C00337C2B742560E1E7002240681146FFF757
:104BAC00AFBC002240681146FFF7BABC4068002237
:104BBC00FFF7AEBC4068002281F00101FFF798BC02
:104BCC00002340681A461946FFF78ABC0023406848
:104BDC001A461946FFF77CBC002240681146FFF7C5
:104BEC006FBC002240681146FFF75ABC4068002297
:104BFC000221FFF75DBC002340681A46FFF748BC52
:104C0C00024B03225A60024A1A607047BCE603202A
:104C1C00AC580B007047F8B5064615460C468F1875
:104C2C00BC4206D0336814F8011B9B683046984789
:104C3C00F6E72846F8BD007C0022FFF705BB007C98
:104C4C000021FFF709BB007C0021FFF70DBB007CA6
:104C5C000021FFF711BB007C0021FFF715BB10B53D
:104C6C0014210446FFF713FA204610BD38B504464C
:104C7C0015464FF47A730022C4E90123094B2174C1
:104C8C00084623602946FFF70FFBBF3008D16B693C
:104C9C00DB0705D56868FFF763FCE868FFF760FC85
:104CAC00204638BDE8580B00704710B51821044653
:104CBC00FFF7EDF9204610BDF0B5037D062B8DB046
:104CCC000E4600F104074FF0000412D000F1080565
:104CDC0015F8011D0A22304600F043F9AF42044496
:104CEC0019D0002CF4D02E21304600F037F90444B2
:104CFC00EEE72F236A4639460A208DF80040FFF76D
:104D0C00DBFA684600F009FD33680246DB68694649
:104D1C0030469847044620460DB0F0BD10B5054B03
:104D2C000446112240F8043B002100F09AFC204676
:104D3C0010BD00BF10590B000346074A10B543F8CD
:104D4C00042B01F1100251F8044B43F8044B91422F
:104D5C00F9D10A781A7010BD10590B0010B59DF8D6
:104D6C00084044EA032343EA024242EA0161042375
:104D7C004160037510BD000007B5064B0360CB788E
:104D8C0000938B784A780978FFF7E8FF03B05DF859
:104D9C0004FB00BF10590B00014B024A1A6070470C
:104DAC00C4E603201C590B00002340681A46FFF789
:104DBC006FBB406800220221FFF77ABB00224068DB
:104DCC001146FFF76DBB002240681146FFF778BB18
:104DDC00002340681A461946FFF77ABB0023406847
:104DEC001A461946FFF77CBB40680021FFF7A0BBB1
:104DFC0040680021FFF7A4BB4068002281F001014C
:104E0C00FFF776BB40680022FFF782BB00224068A8
:104E1C001146FFF785BB002240681146FFF770BBB7
:104E2C002DE9F04395B014460D460746FFF776FF83
:104E3C0000211C220DA8009100F013FC40230C93C0
:104E4C0020466B460CAA0021FFF746FA04460028C0
:104E5C004BD1024601216868FFF732FB02218046E4
:104E6C0022466868FFF72CFB009E81462146002EE7
:104E7C003BD0002939D17368022B03D00A2B11D0F7
:104E8C00F669F4E7B8F1000FFAD0716906A804319D
:104E9C0007ADFFF771FF0FCD3C1D0FC42B682370BE
:104EAC004146EDE7B9F1000FEAD07469102201A870
:104EBC0000F0D7FB06238DF8143001AD04F1080384
:104ECC001834186859682A4603C20833A342154699
:104EDC00F7D101A906A807ADFFF72EFF0FCD3C1D9A
:104EEC000FC42B6823704946CAE70098FFF7ECF90A
:104EFC00384615B0BDE8F083024B034A1A60002215
:104F0C005A607047C8E6032028590B00F8B50646CE
:104F1C000D468F180024BD420CD0336815F8011BC8
:104F2C009B6830469847031E01DB1C44F3E7002CBA
:104F3C0008BF1C462046F8BD13B50446084659B1B7
:104F4C00019100F0EAFB23680199DB6802462046D8
:104F5C0002B0BDE81040184702B010BD03689B6852
:104F6C00184730B58BB00023012A8DF8243098BF38
:104F7C000A2209AC0D46B1FBF2F101FB125303F00E
:104F8C00FF03092B94BF30333733DBB2AA4204F84A
:104F9C00013DEFD92146FFF7CFFF0BB030BD00002C
:104FAC00014B00229A607047D0E6032010B50446EE
:104FBC0008462170FFF798F900236360204610BD66
:104FCC0010B504460068FFF7CBFA204610BD10B5AB
:104FDC000446006808B1FFF7C3FA0023C4E90133A3
:104FEC00236010BD38B504460D4600680131FFF74B
:104FFC00BFFA10B1C4E90005012038BD10B5036833
:10500C00044623B143688B4201D3012010BD2046D6
:10501C00FFF7E8FF0028F9D0A368002BF5D1226830
:10502C001370F2E737B50D46114601920446FFF7AF
:10503C00E5FF019A28B92046FFF7C9FF204603B0C7
:10504C0030BDA2602946206800F0FDFA2268A368F2
:10505C000021D154F2E7002313B5C0E90033044614
:10506C008360037341B10846019100F056FB01992E
:10507C0002462046FFF7D6FF204602B010BD8842FC
:10508C0010B5044605D00B682BB18A681946FFF79A
:10509C00C9FF204610BDFFF79AFFFAE710B50023B1
:1050AC000446C0E9003383600373FFF7E8FF204632
:1050BC0010BD70B505460E4609B9002070BD6AB129
:1050CC00846814442146FFF799FF0028F5D028681E
:1050DC00AB683146184400F0FBFAAC600120EDE7F8
:1050EC0010B58A6809680446FFF7E3FF10B920463B
:1050FC00FFF76DFF204610BD054B02221A60054BD1
:10510C00054A9A600020C3E90000FFF775B900BF9B
:10511C00ECE60320E0E603200000FFFF024B1A68D8
:10512C00024B1A60704700BF28E60320F0E603200C
:10513C0070474174704708B5007CFFF715F920EAF9
:10514C00E07008BD08B5007CFFF7E6F820EAE070D7
:10515C0008BD08B5007CFFF7EFF840EAE07008BD29
:10516C0008B5007CFFF7E0F840EAE07008BD007C71
:10517C00FFF7EAB837B5457C04462DB1207C03B067
:10518C00BDE83040FFF7C0B8007C0191FFF7ECF8A8
:10519C0000280199F2DC284603B030BD10B514216B
:1051AC000446FEF774FF204610BD000010B54FF406
:1051BC007A730446084611460022C4E90123044BC5
:1051CC002360012320746374FFF7D6F8204610BDCA
:1051DC0080590B00417470477047704708B5002127
:1051EC00007CFFF7E9F840EAE07008BD08B5012142
:1051FC00007CFFF7E1F840EAE07008BD08B5007CE0
:10520C00FFF7D2F820EAE07008BD08B5007CFFF784
:10521C00C3F820EAE07008BD13B50446007C019188
:10522C00FFF7C2F80028019901DC607C20B1207CDA
:10523C00FFF7CAF820EAE07002B010BD007CFFF75F
:10524C00CBB810B514210446FEF721FF204610BD43
:10525C0010B54FF47A73044608460021C4E90113D3
:10526C00044B23600123207463741146FFF78CF800
:10527C00204610BDB0590B0010B514220446002175
:10528C0000F0EFF9204610BD10B50F4C88B003A804
:10529C00FFF7F2FF2178BFF35B8F11F001010FD103
:1052AC0020460191FEF7FAFE019948B103AA07487E
:1052BC00FFF7CEFF2046FEF7F6FE054800F0BDF9DD
:1052CC00024808B010BD00BFF4E60320F8E6032046
:1052DC00E5510B00002240681146FFF7F1B800229F
:1052EC0040681146FFF70CB9002240681146FFF7E1
:1052FC0017B940680022FFF70BB94068002281F013
:10530C000101FFF7F5B8002340681A461946FFF76C
:10531C00E7B8002340681A461946FFF7D9B80022AF
:10532C0040681146FFF7BCB8406800220221FFF725
:10533C00BFB8002340681A46FFF7AAB8024B0422F4
:10534C005A60024A1A6070470CE70320E0590B00C0
:10535C00014B1860704700BF2CE6032008B50B4BBF
:10536C0043B1FFF791FF03681B699847002801DDE3
:10537C00AFF30080064B43B100F036F903681B69AC
:10538C009847002801DDAFF3008008BD0000000045
:10539C000000000008B5FFF7E1FFFEF73DFF014BF1
:1053AC00186008BD28E703200548064A064908B5D9
:1053BC00121A00F048F9054B054A1A6008BD00BFE7
:1053CC0000F4032004F40320D45A0B0000F403204F
:1053DC001E1C279A07B5002300931A466FF077011D
:1053EC00FFF72CF803B05DF804FB000007B5438809
:1053FC000A2B08D0502B0BD1094B1B684BB103B0B7
:10540C005DF804EB1847FFF7E5FF03B05DF804FB0C
:10541C00002300931A466FF07701FFF70FF8F4E7BB
:10542C0018E7032010B512480021FFF7C1F8114B03
:10543C001A68114B9A42114B0CBF012200221A70B0
:10544C0001D0FFF7B1FFFEF7DFFE044600F012F9C2
:10545C000B4B13B12046AFF3008000210848FFF737
:10546C000FF8BDE8104007480021FEF7DDBF00BF74
:10547C005D530B0000F403201E1C279A14E7032035
:10548C0000000000F9530B00232813B502D90020AB
:10549C0002B010BDA0F10B03022B1AD8174C2178C7
:1054AC00BFF35B8F11F001010BD120460191FEF788
:1054BC00F5FD019928B11248FFF778FD2046FEF75B
:1054CC00F2FD0F4B1878FEF717FF0028DFD10120F3
:1054DC00DEE7012809D800F047F80021007CFEF730
:1054EC00DBFE80F00100C0B2D2E709380128EED80B
:1054FC0000F07AF8007CFEF72FFFF2E71CE70320A0
:10550C0020E703200D2810B504469CBF0E34A4B22E
:10551C002046FFF7B9FF50B103212046FEF784FE69
:10552C00032804D12046BDE81040FEF785BE0020BC
:10553C0010BD704738B50A4B036001230446436124
:10554C000849202000F074F8202560600549A5600A
:10555C00284600F06DF8C4E90305204638BD00BFAD
:10556C0018000100145A0B0030B50E4D2978BFF30A
:10557C005B8F11F0010487B011D12846FEF78EFD28
:10558C0068B16846FFF7D6FF6A4621460648FFF722
:10559C006DFB2846FEF787FD044800F04EF80248E4
:1055AC0007B030BD2CE7032030E703203F550B003C
:1055BC007047000038B5044614252A46002100F037
:1055CC0050F825804025074925812846258200F082
:1055DC002FF804496060284600F02AF8E060204665
:1055EC0038BD00BF145A0B0030B50E4D2978BFF3EF
:1055FC005B8F11F0010487B011D12846FEF74EFDE8
:10560C0068B101A8FFF7D6FF01AA21460648FFF7AB
:10561C00CDFD2846FEF747FD044800F00EF8024881
:10562C0007B030BD44E7032048E70320BD550B000D
:10563C00FEF72BBD08B5FEF7A3FF002301461A4663
:10564C00184600F073B80A44914200F1FF3300D1C0
:10565C00704710B511F8014B03F8014F9142F9D185
:10566C0010BD02440346934200D1704703F8011B5E
:10567C00F9E7000038B5104B1D68AB6B0446B3B9A5
:10568C001820FEF765FF0246A86320B90B4B0C48A7
:10569C004221FEF785FF0B490B4BC0E900130B4B66
:1056AC0083600B23838100210120C2E90401AB6BD1
:1056BC0000221C615A6138BD2CE60320155A0B00E0
:1056CC002C5A0B000E33CDAB34126DE6ECDE05001C
:1056DC00034611F8012B03F8012B002AF9D170476E
:1056EC00024B0146186800F003B800BF2CE60320FB
:1056FC0037B5044608460D4600F00FF8421C11461B
:10570C0020460192FEF744FF044618B1019A29463F
:10571C00FFF799FF204603B030BD034613F8012B69
:10572C00002AFBD1181A0138704700002DE9F84304
:10573C00DFF8B8800646D8F800001F460D469146A3
:10574C0000F056F8254B1C6834B9254C1C60254BD1
:10575C0013B11B68C4F8883063681F2B07DDD8F8B9
:10576C00000000F047F84FF0FF30BDE8F8834EB36F
:10577C00D4F8880088B91C4B23B9D8F8000000F085
:10578C0038F8F0E74FF48470FEF7E2FE0028F4D00E
:10579C000023C0E94033C4F88800636840F82390C4
:1057AC0001229A4000EB8301D0F800311343C0F87A
:1057BC000031022EC1F8807002BFD0F804311343BF
:1057CC00C0F804316368D8F800005A1C02336260D8
:1057DC0044F8235000F00EF80020C6E7E8E7032059
:1057EC005CE70320000000005D450B0090E6032001
:1057FC0070477047704700001D400B0059400B006C
:10580C0081400B0085400B0000000000547269675A
:10581C006765722053616665776F726420486170AA
:10582C00746963007075626C6973684D657373613C
:10583C0067653A200053656E736F722056616C7504
:10584C00653A20256400636F6D2E646573496E762E
:10585C003230322E70726F6A656374322E736166E9
:10586C0065576F726400636F6D2E7669646974623C
:10587C002E70686F746F6E32000000000000000024
:10588C000000000075460B007B460B00B9460B0070
:10589C0089460B0077460B0000000000000000005A
:1058AC00034C0B00F94B0B00EF4B0B00E54B0B00C3
:1058BC00D94B0B00CD4B0B00F54D0B00FD4D0B00E8
:1058CC00C14B0B00B94B0B00AF4B0B00A54B0B00A6
:1058DC002D4E0B000000000000000000214C0B00BE
:1058EC006B4C0B00434C0B00234C0B004B4C0B0034
:1058FC00534C0B005B4C0B00634C0B000000000086
:10590C0000000000C54C0B00B54C0B00B74C0B0055
:10591C00617070000000000000000000B54D0B002D
:10592C00BF4D0B00C94D0B00D34D0B00DD4D0B00D3
:10593C00E94D0B00F54D0B00FD4D0B00054E0B001A
:10594C00114E0B00194E0B00234E0B002D4E0B006D
:10595C0025592D256D2D25645425483A254D3A257C
:10596C0053257A0061736374696D65000000000053
:10597C00000000003D510B00A9510B0081510B00A0
:10598C00194F0B0051510B006D510B005F510B0067
:10599C007B510B003F510B0043510B0000000000EA
:1059AC0000000000E7510B004F520B0025520B007A
:1059BC00194F0B0017520B00E9510B00F9510B005A
:1059CC0049520B0009520B00E1510B000000000082
:1059DC00000000003F530B0035530B002B530B0002
:1059EC00E1520B001F530B0013530B00F54D0B0032
:1059FC00FD4D0B0007530B00FF520B00F5520B0033
:105A0C00EB520B002D4E0B00005245454E54206DB1
:105A1C00616C6C6F632073756363656564656400AA
:105A2C002F746D702F6A656E6B696E732D474343CF
:105A3C002D31302D706970656C696E652D34385F51
:105A4C0032303230313132345F31363036313830F9
:105A5C003633392F7372632F6E65776C69622F6ED4
:105A6C0065776C69622F6C6962632F7374646C69FF
:105A7C00622F72616E642E6300000000D5410B0032
:105A8C0065460B000D4C0B00A54D0B00054F0B0094
:105A9C00AD4F0B0005510B0029510B0049530B0066
:045AAC0000000000F6
:105AB000040000001400000003000000474E5500E1
:105AC00018210582AECFC1C9D672ED32581DE80942
:045AD000B1D1F2520C
:045AD40000000000CE
:105AD80070590B0030E603200000000000000000B1
:105AE80000000000000000000000000000000000AE
:105AF800000000000000000000000000000000009E
:105B0800000000000000000000000000000000008D
:105B1800000000000000000000000000000000007D
:105B2800000000000000000000000000000000006D
:0C5B38000000000000000000ECE703206B
:105B4400FFFFFFFF00000102030405060708090A1E
:105B54000B0C0D0E0F101112131415161718191A19
:085B64001B1C1D1E1F20280060
:045B6C007856341221
:04000003B000401CED
:00000001FF
