:02000004085F93
:10D0000000D05F08FCFF5F0800000600200005015B
:08D0100004017D150000000081
:10D018001348144908B5884205D0134A824202D001
:10D02800124B121A98471248124A0021124B121A30
:10D03800984712481249884205D0124A824202D0C3
:10D048000A4B121A984710481049884205D0104ACE
:10D05800824202D0054B121A9847014808BD00BF0A
:10D0680098AD071028F25F0808AE07102D0D1110B3
:10D0780008AE0710E8AF0710A10E111070DE3F02CE
:10D08800A8D05F0878DE3F0278DE3F02B0D05F08A4
:0CD09800F0FF3F0219D05F08000000000C
:08D0A8009CD05F08E4FC3F028C
:10D0B000034613F8012B002AFBD1181A01387047D8
:10D0C00070B501F0CDFC0025054E064CA41BA4084C
:10D0D000AC4200D170BD56F8043B98470135F7E7E4
:10D0E000CCFF3F02F0FF3F0200F0E0B808B500F0CF
:10D0F00047F9BDE8084001F06BBC00F0D7BC00F078
:10D10000D5BC00F0E1BC0FB44FF0FF3004B0704765
:10D110000078B0FA80F0400970470123037070472F
:10D12000704710B50C4601F039FD5A2101F0C2F8E4
:10D1300001F034FD036821469B68984701F02EFDFD
:10D1400001F0BFF801F02AFD01225A2101F0ABF8ED
:10D1500001F024FD03685B699847C0B210BD38B583
:10D1600014460D4601F01AFD5A2101F0A3F801F012
:10D1700015FD036829469B68984701F00FFD036879
:10D1800021469B68984701F009FDBDE8384001F051
:10D1900098B810B5044601F001FD01F055F80021E2
:10D1A0002046FFF7BEFF204600220121FFF7D7FFF0
:10D1B000204600220221FFF7D2FF2046012204214F
:10D1C000FFF7CDFF204600220521FFF7C8FF2046CC
:10D1D00000220D21FFF7C3FF204600220E21FFF79A
:10D1E000BEFF204600220F21FFF7B9FF2046002294
:10D1F0001021FFF7B4FF642220461321FFF7AFFF91
:10D200001A212046FFF78DFF1A2100F07F022046E9
:10D21000FFF7A5FF1D212046FFF783FF40F0200008
:10D22000C2B21D212046FFF79AFF012010BD043134
:10D23000C9B2FFF794BF0A460321FFF790BF01224E
:10D240000C21FFF78CBF000008B50A4B1B68834216
:10D250000ED00F2200210848FFF7E9FF0648002200
:10D260000121FFF7E4FFBDE808400348FFF7E7BFEF
:10D2700008BD00BF2CAE07103CAE07100EB44FF037
:10D28000200C002300B58CB00DAA52F8041BCDE988
:10D2900004C3CDE900120392016804AA1E2000F025
:10D2A000C3FA0CB05DF804EB03B07047002213B56D
:10D2B000CDE900220848094C01230949006800F023
:10D2C00031FB2046FFF765FF0121204602B0BDE893
:10D2D0001040FFF7B0BF00BF18AE07103CAE0710FC
:10D2E00011E03F0210B58CB01F4904A801F0C3F94A
:10D2F0001E4908A801F0BFF904A908A801F000FA26
:10D3000001681B48FFF7BAFF08A801F069F919493D
:10D3100008A801F0D3F9184908A801F0F1F9174B52
:10D3200001681B78049A8DF8003002A83C2300F0B5
:10D3300099FD039C7CB16368013B63605BB9236822
:10D3400020469B689847A368013BA3601BB92368EC
:10D350002046DB68984708A801F042F904A801F0CC
:10D360003FF90CB010BD00BFF4FC3F020CFD3F02C2
:10D370008CAE071008AE071060AE071028AE07107D
:10D3800010B50B2001F0DCFB044601460B48FFF70B
:10D39000BAFEB4F5FA7F10DDFFF7A4FF08220021E2
:10D3A0000748FFF744FF064800220121FFF73FFF2F
:10D3B000BDE810400248FFF742BF10BD1DFD3F020F
:10D3C0003CAE071038B50024134B144D1C701449A3
:10D3D000144801F050F91449144801F04CF9294659
:10D3E000134801F048F91349134801F044F913496F
:10D3F000134801F040F91349134801F03CF929465C
:10D40000124801F038F91248FFF78AFE2146BDE8BC
:10D410003840012000F024BA28AE07104EFD3F022C
:10D420002EFD3F0218AE071067FD3F0208AE071041
:10D430002CAE071088FD3F0260AE0710A1FD3F0231
:10D4400050AE0710BAFD3F0240AE071070AE071095
:10D450003CAE071009B504480068044B03441B6840
:10D460005B6C029309BD000098AD0710300000000E
:10D4700009B504480068044B03441B685B680293C9
:10D4800009BD000098AD07100000000009B5044870
:10D490000068044B03441B685B69029309BD0000EC
:10D4A00098AD07100000000009B504480068044B5F
:10D4B00003441B685B68029309BD000098AD071028
:10D4C0001400000009B504480068044B03441B68BD
:10D4D0001B6B029309BD000098AD071014000000FB
:10D4E00009B504480068044B03441B68DB680293D9
:10D4F00009BD000098AD07101000000009B50448F0
:10D500000068044B03441B689B69029309BD00003B
:10D5100098AD07101000000009B504480068044BDE
:10D5200003441B68DB69029309BD000098AD071036
:10D530001000000009B504480068044B03441B6850
:10D540001B6A029309BD000098AD0710100000008F
:10D5500009B504480068044B03441B685B6A0293E6
:10D5600009BD000098AD07101000000009B504487F
:10D570000068044B03441B689B6A029309BD0000CA
:10D5800098AD07101000000009B504480068044B6E
:10D5900003441B68DB6A029309BD000098AD0710C5
:10D5A0001000000009B504480068044B03441B68E0
:10D5B0001B6B029309BD000098AD0710100000001E
:10D5C00009B504480068044B03441B685B6B029375
:10D5D00009BD000098AD07101000000009B504480F
:10D5E0000068044B03441B681B6C029309BD0000D8
:10D5F00098AD07101000000009B504480068044BFE
:10D6000003441B681B6D029309BD000098AD071011
:10D610001000000009B504480068044B03441B686F
:10D620005B69029309BD000098AD07104C00000033
:10D6300009B504480068044B03441B689B680293C7
:10D6400009BD000098AD07105000000009B504485E
:10D650000068044B03441B68DB68029309BD0000AB
:10D6600098AD07105000000009B504480068044B4D
:10D6700003441B68DB69029309BD000098AD0710E5
:10D680001800000009B504480068044B03441B68F7
:10D690001B6A029309BD000098AD07101800000036
:10D6A00009B504480068044B03441B68DB68029317
:10D6B00009BD000098AD07102400000009B504481A
:10D6C0000068044B03441B681B69029309BD0000FA
:10D6D00098AD07102400000009B504480068044B09
:10D6E00003441B685B69029309BD000098AD0710F5
:10D6F0002400000009B504480068044B03441B687B
:10D700009B69029309BD000098AD0710240000003A
:10D7100009B504480068044B03441B68DB690293A5
:10D7200009BD000098AD07102400000009B50448A9
:10D730000068044B03441B681B6A029309BD000088
:10D7400098AD07102400000009B504480068044B98
:10D7500003441B689B6A029309BD000098AD071043
:10D760002400000009B504480068044B03441B680A
:10D770001B6C029309BD000098AD07102400000047
:10D7800009B504480068044B03441B681B680293F6
:10D7900009BD000098AD07103400000009B5044829
:10D7A0000068044B03441B681B69029309BD000019
:10D7B00098AD07103400000009B504480068044B18
:10D7C00003441B685B69029309BD000098AD071014
:10D7D0003400000009B504480068044B03441B688A
:10D7E0009B69029309BD000098AD0710340000004A
:10D7F00009B504480068044B03441B68DB690293C5
:10D8000009BD000098AD07103400000009B50448B8
:10D810000068044B03441B681B6A029309BD0000A7
:10D8200098AD07103400000009B504480068044BA7
:10D8300003441B685B6D029309BD000098AD07109F
:10D840004800000009B504480068044B03441B6805
:10D850005B68029309BD000098AD07100800000046
:10D8600009B504480068044B03441B68DB6A029353
:10D8700009BD000098AD07100800000009B5044874
:10D880000068044B03441B68DB6C029309BD000075
:10D8900098AD07100800000009B504480068044B63
:10D8A00003441B685B6D029309BD000098AD07102F
:10D8B0000800000009B504480068044B03441B68D5
:10D8C000D3F88830029309BD98AD07100800000016
:10D8D00009B504480068044B03441B68D3F894302E
:10D8E000029309BD98AD07100800000009B504486F
:10D8F0000068044B03441B685B69029309BD000088
:10D9000098AD07102C00000009B504480068044BCE
:10D9100003441B681B6A029309BD000098AD071001
:10D920002C00000009B504480068044B03441B6840
:10D930005B6A029309BD000098AD07102C0000003F
:10D9400009B504480068044B03441B68DB6B029371
:10D9500009BD000098AD07102C00000009B504486F
:10D960000068044B03441B685B68029309BD000018
:10D9700098AD07102800000009B504480068044B62
:10D9800003441B689B68029309BD000098AD071013
:10D990002800000009B504480068044B03441B68D4
:10D9A000DB68029309BD000098AD07102800000055
:10D9B00009B504480068044B03441B681B690293C3
:10D9C00009BD000098AD07102800000009B5044803
:10D9D0000068044B03441B685B69029309BD0000A7
:10D9E00098AD07102800000009B504480068044BF2
:10D9F00003441B689B69029309BD000098AD0710A2
:10DA00002800000009B504480068044B03441B6863
:10DA1000DB69029309BD000098AD071028000000E3
:10DA200009B504480068044B03441B681B6A029351
:10DA300009BD000098AD07102800000009B5044892
:10DA40000068044B03441B681B6B029309BD000074
:10DA500098AD07102800000009B504480068044B81
:10DA600003441B685B6B029309BD000098AD07106F
:10DA70002800000009B504480068044B03441B68F3
:10DA80001B6C029309BD000098AD07102800000030
:10DA900009B504480068044B03441B685B6C02939F
:10DAA00009BD000098AD07102800000009B5044822
:10DAB0000068044B03441B681B68029309BD000007
:10DAC00098AD07100400000009B504480068044B35
:10DAD00003441B685B68029309BD000098AD071002
:10DAE0000400000009B504480068044B03441B68A7
:10DAF0009B68029309BD000098AD07100400000068
:10DB000009B504480068044B03441B68DB6A0293B0
:10DB100009BD000098AD07100400000009B50448D5
:10DB20000068044B03441B681B6B029309BD000093
:10DB300098AD07100400000009B504480068044BC4
:10DB400003441B681B6C029309BD000098AD0710CD
:10DB50000400000009B504480068044B03441B6836
:10DB60005B6C029309BD000098AD07100400000033
:10DB700038B5046805467CB16368013B63605BB9F6
:10DB8000236820469B689847A368013BA3601BB9A4
:10DB900023682046DB689847284638BD10B583685F
:10DBA00004460BB901F0E0F8C3689847A3681BB1BD
:10DBB00003222146204698472046BDE81040102108
:10DBC000FFF79FBA10B58368044613B103220146DC
:10DBD0009847204610BD13B56C460B460246D0E967
:10DBE000000184E8030093E8030082E8030094E85E
:10DBF000030083E8030002B010BD000000230248C8
:10DC00000360FFF727BC00BF80AE071070470020FD
:10DC1000704710B504461021FFF773FA204610BD77
:10DC200008B5FFF7F6FF08BD002230B54FF69C742B
:10DC3000026084808D888C800C68858004600A6016
:10DC400030BD10B504460068FFF73EFF204610BD0A
:10DC500038B5C46814B32378DBB2022B03D104F1C6
:10DC60000C00FFF7EEFF231D1D6835B12846FFF7B6
:10DC7000A9FF10212846FFF744FA04F108031D68A4
:10DC800035B12846FFF79EFF10212846FFF739FAE5
:10DC90002046BDE838401421FFF733BA38BD0B6881
:10DCA00003604B68436013B15A6801325A60704791
:10DCB00037B5044668460D46FFF7F1FF009B019A11
:10DCC00023600023626001A801930093FFF750FFD7
:10DCD00035B1281DFFF74CFF08212846FFF711FA40
:10DCE000204603B030BD826810B50AB901F03CF897
:10DCF000C368BDE81040184708B5006800F110017E
:10DD0000FFF7F1FF08BD826810B50AB901F02CF8E1
:10DD1000C368BDE81040184708B5006800F110015D
:10DD2000FFF7F1FF08BD000038B50023044603608B
:10DD300010200D46FFF7E1F928B10123C0E90133B6
:10DD4000024BC56003602060204638BDD4FD3F0211
:10DD500038B5002383608B6804460D462BB1022240
:10DD60009847EB68E360AB68A360204638BD0000CD
:10DD7000F0B589B004686846FFF756FF4FF002031C
:10DD8000D4E84F2F002A03D1C4E8413F0029F7D13E
:10DD900021D104F10C0569462846FFF745FF012211
:10DDA000631CC3E88F2F002004F10803D3E8EF6F52
:10DDB000C3E8E20F002AF9D16EB1FFF75FFD78B139
:10DDC00029463046FFF78FFF3046FFF7FBFE102154
:10DDD0003046FFF796F96846FFF733FF09B0F0BD0C
:10DDE000314602A8FFF7B4FFE068B4F9105008B15B
:10DDF00001F00EF806901020ADF81C50FFF77DF9E9
:10DE00000546E8B1002787601820FFF776F9044639
:10DE100088B10146876002A8FFF7DDFE049BA26877
:10DE2000A360059B0492E26806A9E36004F1100078
:10DE30000592FFF7F9FE084B2C60EB60074BAB60D7
:10DE400006A8FFF7FEFE02A8FFF7BCFE0022294647
:10DE50000348FFF721FDB7E7C1EA3F023DED3F026E
:10DE600065E93F022DE9F04F8BB005460F4690461D
:10DE700099469DF850A0FFF739FD07AE834638BBA1
:10DE80004FF62E73059005A93046ADF81830FFF710
:10DE9000CBFE1420FFF731F9044648B1022303708A
:10DEA0000123C0E901BB437031460C30FFF7BCFED3
:10DEB0002846214640F8044BFFF736FF3046FFF76F
:10DEC000C0FE05A8FFF7BDFE28460BB0BDE8F08FE9
:10DED0000C2300241420CDE908440793FFF70DF923
:10DEE000014618B1C0E901440470447004A80391CC
:10DEF000FFF71AFF1E4B08200893FFF7FEF80446B1
:10DF000010B103A9FFF7CBFE4A46414638460096BA
:10DF10005FFA8AF30994FFF7F7FCB8B9039B013362
:10DF20001B78DBB293B905934FF69C7305A903A840
:10DF3000ADF81830FFF71CFF05A8FFF782FE05A813
:10DF40000999FFF7B5FE06A8FFF712FE03A905A879
:10DF5000FFF7A5FE059B069A2B6000236A6006A8C2
:10DF600006930593FFF704FE04A8FFF701FEABE755
:10DF7000B9ED3F02012AF8B5054603D10B680360ED
:10DF80000020F8BD022A10D0032AF9D10468002C21
:10DF9000F6D004F11000FFF754FE2046FFF712FE02
:10DFA00018212046FFF7ADF8EAE718200E68FFF7C2
:10DFB000A4F8044650B13146FFF7CAFE3069B6F9FD
:10DFC000147008B100F024FF2061A7822C60D7E70D
:10DFD00038B5002383608B6804460D462BB10222BE
:10DFE0009847EB68E360AB68A360204638BD00004B
:10DFF000F0B5044689B00D4601A81146FFF758FE5A
:10E00000A4B124B21DB1284600F002FF054601A8C4
:10E0100003A90395ADF81040FFF7AAFE03A8FFF788
:10E0200010FE02A8FFF7A4FD09B0F0BD0123019D79
:10E03000D5E84F2F002A03D1C5E8413F0029F7D189
:10E04000EFD12B730122EB18C3E88F2F2B1DD3E8E0
:10E05000EF6FC3E8E24F002AF9D1002EE1D020464D
:10E06000FFF70CFC074660B1304605F10C01FFF7E5
:10E070004AFE3046FFF7A6FD10213046FFF741F873
:10E08000CFE7314603A8FFF7A3FF2B7B10208DF8C5
:10E090001C30FFF732F80546D0B187601420FFF737
:10E0A0002CF8044678B10146876003A8FFF793FD7A
:10E0B000059BA268A360069B0592E268E3609DF859
:10E0C0001C3006922374074B2C60EB60064BAB6050
:10E0D00003A8FFF777FD002229460448FFF7DCFB81
:10E0E000C7E700BFE1EA3F02B9EE3F0265E93F0240
:10E0F000012A70B5044603D10B680360002070BD8F
:10E10000022A0CD0032AF9D10468002CF6D020464C
:10E11000FFF758FD14212046FEF7F3FFEEE7142029
:10E120000E68FEF7EAFF054620B13146FFF750FFC3
:10E13000337C2B742560E1E7002240681146FFF72D
:10E140006FBC002240681146FFF786BC0022406881
:10E15000FFF774BC0022406881F00101FFF752BC58
:10E16000002340681A461946FFF73EBC002340686A
:10E170001A461946FFF72ABC002240681146FFF7ED
:10E1800017BC002240681146FFF7F6BB00220221AF
:10E190004068FFF7FFBB002340681A46FFF7DEBB6D
:10E1A0000322024B5A60024A1A60704784AE07107D
:10E1B000F0FD3F027047F8B5064615460C468F182D
:10E1C000BC4206D0336830469B6814F8011B984760
:10E1D000F6E72846F8BD0022007CFFF7ABB9002126
:10E1E000007CFFF7B5B90021007CFFF7BFB9002123
:10E1F000007CFFF7C9B90021007CFFF7D3B910B547
:10E2000004461421FEF77DFF204610BD38B50446B4
:10E2100015464FF47A730022C4E90123094B0846DE
:10E22000217423602946FFF7D9F9BF3008D16B6903
:10E23000DB0705D56868FFF747FCE868FFF744FC93
:10E24000204638BD2CFE3F020023007C1A461946AA
:10E25000FFF746B97FB500221423CDE90122ADF8BE
:10E2600004300B78007C8DF808304B680393CB6842
:10E2700004930B7A01A90593FFF7BEF907B05DF887
:10E2800004FB1FB5003B8DF800104FF0640118BF70
:10E2900001230391694601928DF80830FFF7DAFFF8
:10E2A00005B05DF804FB0123FFF7EBBF0022007C03
:10E2B000FFF724B9C9B2FFF7F9BF0022007CFFF7CE
:10E2C0002BB90121FFF7F9BF704710B5044618219B
:10E2D000FEF717FF204610BDF0B5037D0E46062B56
:10E2E0004FF000048DB000F1040712D000F10805D2
:10E2F00015F8011D0A22304600F043F9AF420444EC
:10E3000019D0002CF4D02E21304600F037F9044407
:10E31000EEE72F236A4639460A208DF80040FFF7C2
:10E3200079F96846FEF7C4FE33680246694630460E
:10E33000DB689847044620460DB0F0BD10B5044692
:10E34000044B1122002140F8043B00F023FD20463D
:10E3500010BD00BF54FE3F020346074A10B543F804
:10E36000042B01F1100251F8044B914243F8044B85
:10E37000F9D10A781A7010BD54FE3F0210B59DF80D
:10E38000084044EA032343EA0242042342EA0161CB
:10E390004160037510BD000007B5064B0360CB78E4
:10E3A00000938B784A780978FFF7E8FF03B05DF8AF
:10E3B00004FB00BF54FE3F02014B024A1A60704743
:10E3C0008CAE071060FE3F02002340681A46FFF73C
:10E3D000C5BA002202214068FFF7DCBA002240687B
:10E3E0001146FFF7C9BA002240681146FFF7E0BAAC
:10E3F000002340681A461946FFF7E8BA0023406830
:10E400001A461946FFF7F0BA00214068FFF732BB01
:10E4100000214068FFF73CBB0022406881F0010109
:10E42000FFF7F0BA00224068FFF708BB00224068FF
:10E430001146FFF711BB002240681146FFF7F0BA02
:10E440002DE9F04395B014460D460746FFF776FFD9
:10E4500000211C220DA8009100F09CFC40232046C6
:10E460000C9300216B460CAAFFF7F0F80446002835
:10E470004BD1024601216868FFF79AFA02218046D3
:10E4800022466868FFF794FA21468146009E002ED6
:10E490003BD0002939D17368022B03D00A2B11D04D
:10E4A000F669F4E7B8F1000FFAD0716906A80431F3
:10E4B0003C1D07ADFFF770FF0FCD0FC42B68414621
:10E4C0002370EDE7B9F1000FEAD0102201A87469BA
:10E4D00000F060FC062301AD8DF8143004F1080350
:10E4E00018342A4618685968083303C2A3421546EF
:10E4F000F7D101A906A83C1D07ADFFF72DFF0FCDF1
:10E500000FC42B6849462370CAE70098FFF790F8BC
:10E51000384615B0BDE8F083024B034A1A6000226A
:10E520005A60704790AE07106CFE3F02F8B5064681
:10E530000D4600248F18BD420CD0336830469B68CE
:10E5400015F8011B9847031E01DB1C44F3E7002C60
:10E5500008BF1C462046F8BD13B50446084659B10D
:10E560000191FEF7A5FD0246204623680199DB686C
:10E5700002B0BDE81040184702B010BD03689B68A8
:10E5800018470023012A98BF0A2230B58BB08DF8B6
:10E59000243009AC0D46B1FBF2F101FB125303F03C
:10E5A000FF03092B94BF30333733DBB2AA4204F8A0
:10E5B000013DEFD92146FFF7CFFF0BB030BD000082
:10E5C0000022014B9A60704798AE071010B50446C0
:10E5D00008462170FFF748F800232046636010BD0D
:10E5E00010B504460068FFF76FFA204610BD10B55D
:10E5F0000446006808B1FFF767FA0023C4E9013355
:10E60000236010BD38B504460D4600680131FFF7A0
:10E6100069FA10B1C4E90005012038BD10B50368DE
:10E62000044623B143688B4201D3012010BD20462C
:10E63000FFF7E8FF0028F9D0A368002BF5D1226886
:10E640001370F2E737B50D46114601920446FFF705
:10E65000E5FF019A28B92046FFF7C9FF204603B01D
:10E6600030BD2946A260206800F087FB00212268A7
:10E67000A368D154F2E7002313B50446C0E9003380
:10E680008360037341B108460191FEF711FD0199C2
:10E6900002462046FFF7D6FF204602B010BD884252
:10E6A00010B5044605D00B682BB18A681946FFF7F0
:10E6B000C9FF204610BDFFF79AFFFAE7002310B507
:10E6C0000446C0E9003383600373FFF7E8FF204688
:10E6D00010BD70B505460E4609B9002070BD6AB17F
:10E6E000846814442146FFF799FF0028F5D0286874
:10E6F000AB683146184400F083FBAC600120EDE7C5
:10E7000010B58A6809680446FFF7E3FF10B9204690
:10E71000FFF76DFF204610BD02220020044B1A6057
:10E72000044B054AC3E900009A60FFF78BB800BFAD
:10E73000B4AE0710A8AE07100000FFFF024B1A6826
:10E74000024B1A60704700BF9CAD0710B8AE0710AF
:10E7500070474174704708B5007CFEF7F5FF20EA6A
:10E76000E07008BD08B5007CFEF7A8FF20EAE07065
:10E7700008BD08B5007CFEF7BDFF40EAE07008BDAB
:10E7800008B5007CFEF7A8FF40EAE07008BD007CF9
:10E79000FEF7BEBF37B5457C04462DB1207C03B0E3
:10E7A000BDE83040FEF77CBF007C0191FEF7CCFF56
:10E7B00000280199F2DC284603B030BD10B50446AC
:10E7C0001421FEF79EFC204610BD000010B54FF44A
:10E7D0007A730446084611460022C4E90123044B1B
:10E7E0002074236001236374FEF7BCFF204610BD34
:10E7F000C4FE3F02007CFEF799BF4174704770472A
:10E80000704708B50021007CFEF7E4FF40EAE070A5
:10E8100008BD08B50121007CFEF7DCFF40EAE0708E
:10E8200008BD08B5007CFEF7C7FF20EAE07008BD10
:10E8300008B5007CFEF7B2FF20EAE07008BD13B512
:10E840000446007C0191FEF7B7FF0028019901DC26
:10E85000607C20B1207CFEF7CBFF20EAE07002B0A4
:10E8600010BD007CFEF7D2BF10B504461421FEF7A0
:10E8700048FC204610BD000010B54FF47A730446E2
:10E8800008460021C4E90113044B207423600123CE
:10E8900011466374FEF774FF204610BDF4FE3F027C
:10E8A00010B504461422002100F074FA204610BD71
:10E8B00010B588B003A8FFF7F3FF0C4CD4E88F1F06
:10E8C00011F001010FD120460191FEF721FC0199C1
:10E8D00048B103AA0648FFF7CFFF2046FEF71DFC0C
:10E8E000044800F044FA024808B010BDBCAE07105E
:10E8F000C0AE0710C7F53F02002240681146FFF77F
:10E9000057B8002240681146FFF78AB800224068D5
:10E910001146FFF7A1B800224068FFF78FB8002228
:10E92000406881F00101FFF76DB8002340681A4686
:10E930001946FFF759B8002340681A461946FFF7F1
:10E9400045B8002240681146FFF716B800220221A0
:10E950004068FFF71FB8002340681A46FEF7FEBF65
:10E960000422024B5A60024A1A607047D4AE071064
:10E9700024FF3F02014B1860704700BFA0AD071095
:10E9800008B50F4B43B1FFF793FF03681B69984726
:10E99000002801DD00E000BF0A4B43B100F052F94E
:10E9A00003681B699847002801DD00E000BF064BA3
:10E9B0000BB100F08DF9054B0BB100F0BFF908BDAC
:10E9C0000000000000000000000000000000000047
:10E9D00008B5FFF7D5FFFEF759FD014B186008BDDC
:10E9E000F0AE07100548064A08B5121A054900F0AE
:10E9F000C4F9054B054A1A6008BD00BF00B40710F2
:10EA000004B4071098F25F0800B407101E1C279A80
:10EA1000002307B51A466FF077010093FEF758FF01
:10EA200003B05DF804FB000007B543880A2B08D04B
:10EA3000502B0BD1094B1B684BB103B05DF804EBB5
:10EA40001847FFF7E5FF03B05DF804FB00231A4603
:10EA50006FF077010093FEF73BFFF4E7E0AE07109D
:10EA6000002110B51148FFF775F8114B1A68114BCA
:10EA70009A420CBF012200220F4B1A7001D0FFF7FF
:10EA8000B1FFFEF7F5FC044600F08CF90B4B13B117
:10EA9000204600E000BF00210848FEF751FFBDE816
:10EAA000104000210648FEF705BF00BF3DF73F02BA
:10EAB00000B407101E1C279ADCAE071000000000EF
:10EAC000F1F73F021B2837B5044602D9002003B0F6
:10EAD00030BDA0F10F03022B0BD9012821D800F083
:10EAE0005DF80021007CFEF76BFD80F00100C0B2F4
:10EAF000EDE7114DD5E88F1F11F001010BD128462C
:10EB00000191FEF705FB019928B10C48FFF75EFD66
:10EB10002846FEF702FB094B1878FEF7B3FD0028E4
:10EB2000D4D1083C012C05D800F08CF8007CFEF70D
:10EB3000FDFDDAE70120CAE7E4AE0710E8AE0710F2
:10EB400010B50446FFF7BEFF50B103212046FEF783
:10EB5000ABFC032804D12046BDE81040FEF7B2BC50
:10EB6000002010BD7047000038B50A4B0446036012
:10EB7000012309494361202000F0F4F8202560605A
:10EB800005492846A56000F0EDF8C4E903052046D4
:10EB900038BD00BF1800010058FF3F0230B50E4DD0
:10EBA00087B0D5E88F1F11F0010411D12846FEF778
:10EBB000AFFA68B16846FFF7D7FF6A4621460748B3
:10EBC000FFF724FB2846FEF7A8FA054800F0CFF827
:10EBD000024807B030BD00BFF4AE0710F8AE071012
:10EBE0002DF93F027047000038B5142504462A4627
:10EBF000002100F0CFF825804025074928462581CF
:10EC0000258200F0AFF804496060284600F0AAF8B9
:10EC1000E060204638BD00BF58FF3F027047704794
:10EC200010B50446FFF7E0FF204610BD10B50446BE
:10EC3000FFF7DAFF204610BD10B50446FFF7D4FFFA
:10EC4000204610BD30B50E4D87B0D5E88F1F11F0AE
:10EC5000010411D12846FEF75BFA68B101A8FFF75D
:10EC6000DFFF214601AA0748FFF7B0FD2846FEF75F
:10EC700054FA054800F07BF8024807B030BD00BFE9
:10EC80000CAF071018AF0710ADF93F0210B50D4CCF
:10EC900086B0D4E88F3FDB0711D42046FEF738FA60
:10ECA00068B101A8FFF7C2FF012101AA0648FFF7DA
:10ECB0008DFD2046FEF731FA044800F058F802486E
:10ECC00006B010BD10AF07102CAF0710E7F93F02D8
:10ECD00010B5FFF7DBFF074B044653B1FFF78AFD82
:10ECE00038B1236820461B699847002801DD00E001
:10ECF00000BF10BD0000000010B50D4C86B0D4E878
:10ED00008F3FDB0711D42046FEF702FA68B101A855
:10ED1000FFF792FF022101AA0648FFF757FD2046A0
:10ED2000FEF7FBF9044800F022F8024806B010BDD7
:10ED300014AF071040AF0710E5F93F0210B5FFF719
:10ED4000DBFF074B044653B1FFF754FD38B123688E
:10ED500020461B699847002801DD00E000BF10BD78
:10ED600000000000FEF7CBB908B5FEF7C9FE00238E
:10ED700001461A46184600F069B80A44431E9142FB
:10ED800000D1704710B511F8014B914203F8014FC3
:10ED9000F9D110BD02440346934200D1704703F8F5
:10EDA000011BF9E738B5104B04461D68AB6BB3B9CE
:10EDB0001820FEF77BFE0246A86320B90B4B4221C8
:10EDC0000B48FEF7B9FE0B490B4BC0E900130B4B88
:10EDD000002183600B2383810120C2E90401AB6B16
:10EDE00000221C615A6138BDA0AD071059FF3F02D7
:10EDF00070FF3F020E33CDAB34126DE6ECDE050042
:10EE0000034611F8012B03F8012B002AF9D17047B2
:10EE1000024B0146186800F003B800BFA0AD071010
:10EE200037B5044608460D46FEF742F9421C204617
:10EE300011460192FEF772FE044618B1019A294666
:10EE4000FFF79BFF204603B030BD00002DE9F843DB
:10EE5000DFF8BC8006461F460D46D8F800009146F4
:10EE600000F058F8264B1C6834B9264C1C60264B21
:10EE700013B11B68C4F8883063681F2B07DDD8F80E
:10EE8000000000F049F84FF0FF30BDE8F8835EB3B2
:10EE9000D4F8880088B91D4B23B9D8F8000000F0D9
:10EEA0003AF8F0E74FF48470FEF700FE0028F4D043
:10EEB0000023C0E94033C4F8880063680122022EB1
:10EEC00040F8239002FA03F200EB8301D0F80031FE
:10EED00043EA0203C0F80031C1F8807002BFD0F8E5
:10EEE00004311343C0F804316368D8F800005A1C99
:10EEF0000233626044F8235000F00EF80020C4E7AB
:10EF0000E0AF071054AF07100000000075E83F02A3
:10EF100004AE0710704770477047000089DE3F025B
:10EF2000B1DE3F02B5DE3F020000000054726967A7
:10EF30006765722053616665776F726420486170FF
:10EF4000746963007075626C6973684D6573736191
:10EF500067653A200053656E736F722056616C7559
:10EF6000653A20256400636F6D2E646573496E7683
:10EF70003230322E70726F6A656374322E7361663E
:10EF800065576F72642E3061313061636564323071
:10EF900032313934393434613034336232630063AE
:10EFA0006F6D2E646573496E763230322E70726FDB
:10EFB0006A656374322E73616665576F72642E00E2
:10EFC0003061313061636564323032313934393423
:10EFD000346130343364343800306131306163651A
:10EFE000643230323139343934346130343461642C
:10EFF0003000636F6D2E656C697A612E70686F7476
:10F000006F6E32000000000000000000D5E93F02F2
:10F01000DBE93F0219EA3F02E9E93F02D7E93F0293
:10F0200000000000000000005FEF3F0255EF3F02CC
:10F030004BEF3F0241EF3F0235EF3F0229EF3F0226
:10F04000D1F13F02D9F13F021DEF3F0215EF3F0220
:10F050000BEF3F0201EF3F0209F23F020000000008
:10F06000000000007DEF3F02C7EF3F029FEF3F022D
:10F070007FEF3F02A7EF3F02AFEF3F02B7EF3F0244
:10F08000BFEF3F020000000000000000A1F03F02BF
:10F0900091F03F0293F03F026170700000000000A9
:10F0A0000000000091F13F029BF13F02A5F13F02F9
:10F0B000AFF13F02B9F13F02C5F13F02D1F13F028A
:10F0C000D9F13F02E1F13F02EDF13F02F5F13F02DC
:10F0D000FFF13F0209F23F0225592D256D2D2564D0
:10F0E0005425483A254D3A2553257A0061736374B7
:10F0F000696D6500000000000000000019F53F0286
:10F1000085F53F025DF53F02F5F23F022DF53F0226
:10F1100049F53F023BF53F0257F53F021BF53F0221
:10F120001FF53F020000000000000000C9F53F028B
:10F1300031F63F0207F63F02F5F23F02F9F53F02D2
:10F14000CBF53F02DBF53F022BF63F02EBF53F022A
:10F15000C3F53F0200000000000000001FF73F025F
:10F1600015F73F020BF73F02C1F63F02FFF63F02E1
:10F17000F3F63F02D1F13F02D9F13F02E7F63F0239
:10F18000DFF63F02D5F63F02CBF63F0209F23F021F
:10F19000005245454E54206D616C6C6F6320737551
:10F1A00063636565646564002F746D702F6A656EB6
:10F1B0006B696E732D4743432D31302D7069706537
:10F1C0006C696E652D34385F323032303131323413
:10F1D0005F313630363138303633392F7372632F22
:10F1E0006E65776C69622F6E65776C69622F6C69EA
:10F1F00062632F7374646C69622F72616E642E6334
:10F20000000000008DE13F02C5E93F0269EF3F02C7
:10F2100081F13F02E1F23F0289F33F02E1F43F0254
:08F2200005F53F0229F73F024A
:10F2280000000002B4FE3F02A4AD07100000000079
:10F2380000000000000000000000000000000000C6
:10F2480000000000000000000000000000000000B6
:10F2580000000000000000000000000000000000A6
:10F268000000000000000000000000000000000096
:10F278000000000000000000000000000000000086
:10F28800000000000000000000000000E4AF0710CC
:04F298000000000072
:10FFBE000200100000D05F08A8D05F0870DE3F027C
:10FFCE0001000A00FFFFFFFFFFFF00000102030414
:10FFDE0005060708090A0B0C0D0E0F10111213144B
:0EFFEE0015161718191A1B1C1D1E1F203E0089
:04FFFC0078563412ED
:04000005085FD018A8
:00000001FF
